:100000000C946A000C9492000C9492000C94920050
:100010000C9492000C9492000C9492000C94920018
:100020000C9492000C9494000C9492000C94920006
:100030000C9492000C9492000C9492000C949200F8
:100040000C94E0030C9492000C94EC050C94920038
:100050000C9492000C9492000C9492000C949200D8
:100060000C9492000C94920005A84CCDB2D44EB9D9
:100070003836A9020C50B9918688083CA6AAAA2A4B
:10008000BE000000803F000024272A000025282B06
:1000900000002326290404040404040404020202C8
:1000A00002020203030303030301020408102040B9
:1000B0008001020408102001020408102000000042
:1000C0000700020100000304060000000000000019
:1000D0000000380211241FBECFEFD4E0DEBFCDBF39
:1000E00011E0A0E0B1E0E0EDF0E102C005900D927A
:1000F000AA31B107D9F713E0AAE1B1E001C01D921E
:10010000A93BB107E1F710E0C4EDD0E004C02297AD
:10011000FE010E946208C23DD107C9F70E94310268
:100120000C9466080C9400001F920F920FB60F9269
:1001300011248F939F93289A90E080911A0188232D
:1001400009F491E090931A019923C9F190E080910C
:100150001B01882309F491E090931B01992351F02E
:100160008091790080931D0180917C008160809353
:100170007C000CC08091790080931E0180917C00EE
:100180008E7F80937C0081E080931C0180911F0111
:100190008F5F80931F0180911F01815080931F0109
:1001A00080911F018F5F80931F0180911F018150FB
:1001B00080931F0180917A00806480937A0085B1DA
:1001C00091E0892785B99F918F910F900FBE0F9075
:1001D0001F9018954F925F926F927F928F929F928D
:1001E000AF92BF92CF92DF92EF92FF920F931F9345
:1001F000CF93DF9380912A019BE2492E91E0592E03
:100200000F2EF0E06F2EF0E07F2EF0E08F2EF0E06A
:100210009F2EF02DC0E0D0E041C0C401B3010E9488
:100220006E0720E030E048EC52E40E940B075B01CF
:100230006C0120E030E040E850E4C401B3010E94CA
:100240000B07A40193010E942A060E946E077B01FE
:100250008C012EEC33E54BEF5DE3C401B3010E944A
:100260002A063B014C0120E030E040E251E4C801A5
:10027000B7010E940B079B01AC01C601B5010E94AA
:100280002A0620E030E04EEF52E40E942A060E9447
:100290008E06862FF20161932F012196F2E0C03085
:1002A000DF070CF4BACF80932A01D0932901C093C1
:1002B0002801DF91CF911F910F91FF90EF90DF9078
:1002C000CF90BF90AF909F908F907F906F905F90F6
:1002D0004F9008950F931F9380911C018823E1F3A1
:1002E0005F9A10921C010091240110912501F801E0
:1002F000E55DFE4F808180931E0120911E01E091FB
:100300002601F091270189E09DE38E1B9F0B60E49D
:1003100070E00E94FC07709323016093220130E09B
:100320002F573040629FC001639F900D729F900DC8
:10033000112460E071E00E94FC0760932801709333
:100340002901615860931E010F5F1F4F11701093B8
:100350002501009324013196F0932701E0932601B3
:10036000E950FD4374F00E94EA0085B190E28927CC
:1003700085B9109227011092260110922501109242
:10038000240180911E018093B3008BB180588BB9FA
:100390001F910F9108950F931F9361E080910F01BA
:1003A0000E94BD0461E0809111010E94BD040BE236
:1003B00013E040E051EE60E070E0C8010E944C02A2
:1003C00060E071E0C8010E94A002EAE7F0E08081ED
:1003D0008B7F808380818260808380818160808345
:1003E000ECE7F0E08081806280838081806480839C
:1003F00080818F77808380818E7F808380818D7FD5
:10040000808380818B7F80838081877F8083E0EB06
:10041000F0E080818F7B8083808180688083808111
:1004200081608083808182608083E1EBF0E0808165
:10043000877F808380818160808380818D7F8083BE
:1004400080818B7F8083239AEEE6F0E080818E7F2F
:100450008083E0E7F0E08081816080831F910F91CD
:1004600008950E9483040E94CB010E946A01FDCF7F
:1004700087E191E090932C0380932B030895862FBE
:100480000E94AB0508950E94E30508950E94C405EB
:1004900008950E94B3050895CB01BA010E94720528
:1004A0000895DC01ED91FC910190F081E02D09951A
:1004B0000895DC01ED91FC910190F081E02D09950A
:1004C00008950F931F93CF93DF938C01EB0109C025
:1004D0002196D801ED91FC910190F081E02DC801A9
:1004E000099568816623A1F7DF91CF911F910F9144
:1004F00008950F931F938C01DC01ED91FC91019005
:10050000F081E02D6DE00995D801ED91FC9101900D
:10051000F081E02D6AE0C80109951F910F910895BF
:100520000F931F938C01DC01ED91FC910190F08100
:10053000E02D0995C8010E9479021F910F9108953D
:100540000F931F938C010E946102C8010E947902DF
:100550001F910F9108950F931F938C01DC01ED9172
:10056000FC910190F081E02D0995C8010E9479026B
:100570001F910F9108952F923F924F925F926F9229
:100580007F928F929F92AF92BF92CF92DF92EF9223
:10059000FF920F931F93DF93CF93CDB7DEB7A09752
:1005A0000FB6F894DEBF0FBECDBF1C016A017B0100
:1005B000411551056105710549F4DC01ED91FC918E
:1005C0000190F081E02D60E3099554C088249924BE
:1005D0005401422E55246624772401E010E00C0FCC
:1005E0001D1F080D191DC701B601A30192010E942C
:1005F0000F08F80160830894811C911CA11CB11C98
:10060000C701B601A30192010E940F08C901DA01D6
:100610006C017D01C114D104E104F104F1F681E023
:10062000E82EF12CEC0EFD1EE80CF91C3E0108949E
:10063000611C711CD501C4010197A109B1096C01AC
:10064000C818D90814C0F601EE0DFF1D60816A308C
:1006500010F4605D01C0695CD101ED91FC910190E5
:10066000F081E02DC10109950894E108F1086E14AC
:100670007F0449F7A0960FB6F894DEBF0FBECDBF3A
:10068000CF91DF911F910F91FF90EF90DF90CF906E
:10069000BF90AF909F908F907F906F905F904F90A2
:1006A0003F902F9008952AE00E94BB0208950F9377
:1006B0001F938C010E945303C8010E9479021F916D
:1006C0000F910895AB0160E070E00E94530308951C
:1006D0000F931F938C01AB0160E070E00E94530305
:1006E000C8010E9479021F910F910895EF92FF9225
:1006F0000F931F93CF93DF93EC017A018B0177FF68
:100700000FC0E881F9810190F081E02D6DE209953B
:1007100010950095F094E094E11CF11C011D111D51
:100720002AE0B801A701CE010E94BB02DF91CF9160
:100730001F910F91FF90EF9008950F931F938C01DD
:100740000E947603C8010E9479021F910F910895BB
:10075000AB01662757FD6095762F0E9476030895BA
:100760000F931F938C01AB01662757FD6095762F81
:100770000E947603C8010E9479021F910F9108958B
:10078000DC012115310541F4ED91FC910190F081DE
:10079000E02D642F099508952A30310519F40E943F
:1007A000760308950E94BB0208950F931F938C0156
:1007B0000E94C003C8010E9479021F910F91089501
:1007C0001F920F920FB60F9211242F938F939F9326
:1007D000AF93BF9380912D0390912E03A0912F038F
:1007E000B09130038050904CAF4FBF4F80932D039A
:1007F00090932E03A0932F03B093300327C08091D2
:100800002D0390912E03A0912F03B09130038058B7
:100810009E43A040B04080932D0390932E03A0935D
:100820002F03B09330038091310390913203A09154
:100830003303B09134030196A11DB11D80933103A0
:1008400090933203A0933303B093340380912D032C
:1008500090912E03A0912F03B091300381589E43B5
:10086000A040B04060F6BF91AF919F918F912F91C2
:100870000F900FBE0F901F9018958FB7F89420918E
:1008800031033091320340913303509134038FBFD1
:10089000B901CA010895EF92FF920F931F937B0154
:1008A0008C018FB7F89440913103509132036091DD
:1008B0003303709134038FBF2FB7F89480913103C5
:1008C00090913203A0913303B09134032FBF841B66
:1008D000950BA60BB70B8E159F05A007B10760F30C
:1008E0001F910F91FF90EF900895019759F0FC012F
:1008F000EE0FFF1FEE0FFF1F32978FB7F89431975F
:10090000F1F78FBF0895789484B5826084BD84B573
:10091000816084BD85B5826085BD85B5816085BDFA
:10092000EEE6F0E0808181608083E1E8F0E08081A4
:1009300082608083808181608083E0E8F0E0808154
:1009400081608083E1EBF0E0808184608083E0EB74
:10095000F0E0808181608083EAE7F0E0808184605C
:1009600080838081826080838081816080838081B8
:10097000806880831092C1000895282F30E0C9015B
:1009800087559F4FFC0194912B563F4FF90184915D
:10099000882381F0E82FF0E0EA57FF4FE491F0E080
:1009A000662329F48081909589238083089580812E
:1009B000892B80830895482F50E0CA0183549F4FAC
:1009C000FC012491CA0187559F4FFC0194914B561D
:1009D0005F4FFA0134913323C1F1222331F12330E7
:1009E00021F4809180008F7705C0243031F480910C
:1009F00080008F7D8093800018C0213019F484B569
:100A00008F7704C0223021F484B58F7D84BD0DC062
:100A1000263021F48091B0008F7705C0273029F46B
:100A20008091B0008F7D8093B000E32FF0E0E55718
:100A3000FF4FE491F0E0662329F4808190958923AB
:100A4000808308958081892B80830895482F50E00A
:100A5000CA0183549F4FFC012491CA0187559F4FBF
:100A6000FC0194914B565F4FFA013491332319F4F2
:100A700020E030E035C0222331F1233021F4809191
:100A800080008F7705C0243031F4809180008F7D05
:100A90008093800018C0213019F484B58F7704C08A
:100AA000223021F484B58F7D84BD0DC0263021F421
:100AB0008091B0008F7705C0273029F48091B00075
:100AC0008F7D8093B000E32FF0E0E057FF4FE4917B
:100AD000F0E0808120E030E0892311F021E030E077
:100AE000C9010895EF92FF920F931F937B018C0130
:100AF00022E030E040E050E00E943108205C3D4BB5
:100B0000404F5F4FCA01B901A80197010E94310807
:100B1000C901DA010197A109B109292F3A2F4B2FF9
:100B2000552747FD5A950196A11DB11D2093C5007B
:100B300081508093C400E1ECF0E08081806180838B
:100B40008081886080838081806880831F910F917D
:100B5000FF90EF900895982F8091C00085FFFCCF03
:100B60009093C60008958091350390913603805884
:100B70009F4F2091370330913803821B930B60E81D
:100B800070E00E94FC0708954091370350913803AC
:100B900080913503909136038417950719F42FEF50
:100BA0003FEF0FC0FA01E75CFC4F2081CA010196BC
:100BB00060E870E00E94FC0790933803809337034D
:100BC00030E0C901089580913703909138039093E4
:100BD00036038093350308951F920F920FB60F923C
:100BE00011242F933F934F935F936F937F938F9332
:100BF0009F93AF93BF93EF93FF934091C600E09113
:100C00003503F0913603CF01019660E870E00E9451
:100C1000FC079C018091370390913803281739070E
:100C200039F0E75CFC4F4083309336032093350363
:100C3000FF91EF91BF91AF919F918F917F916F91B4
:100C40005F914F913F912F910F900FBE0F901F908A
:100C500018955058BB27AA270ED0A3C094D030F0C7
:100C600099D020F031F49F3F11F41EF489C00EF4A6
:100C7000E095E7FB7FC0E92FA5D080F3BA176207A4
:100C800073078407950718F071F49EF5BDC00EF444
:100C9000E0950B2EBA2FA02D0B01B90190010C018C
:100CA000CA01A0011124FF27591B99F0593F50F4A4
:100CB000503E68F11A16F040A22F232F342F4427FC
:100CC000585FF3CF469537952795A795F0405395F4
:100CD000C9F77EF41F16BA0B620B730B840BBAF0C4
:100CE0009150A1F0FF0FBB1F661F771F881FC2F72F
:100CF0000EC0BA0F621F731F841F48F48795779543
:100D00006795B795F7959E3F08F0B3CF9395880FF9
:100D100008F09927EE0F9795879508955BD088F096
:100D20009F5790F0B92F9927B751A0F0D1F0660FD7
:100D3000771F881F991F1AF0BA95C9F712C0B130F2
:100D400081F062D0B1E008955FC0672F782F8827C7
:100D5000B85F39F0B93FCCF3869577956795B39531
:100D6000D9F73EF490958095709561957F4F8F4FA0
:100D70009F4F089597F99F6780E870E060E00895BD
:100D80009FEF80EC089500240A94161617061806A3
:100D90000906089500240A9412161306140605067F
:100DA0000895092E0394000C11F4882352F0BB0F10
:100DB00040F4BF2B11F460FF04C06F5F7F4F8F4F73
:100DC0009F4F089557FD9058440F551F59F05F3FAE
:100DD00071F04795880F97FB991F61F09F3F79F05D
:100DE00087950895121613061406551FF2CF4695DF
:100DF000F1DF08C0161617061806991FF1CF869561
:100E00007105610508940895E894BB276627772744
:100E1000CB0197F908950BD0C4CFB5DF28F0BADF26
:100E200018F0952309F0A6CFABCF1124EECFCADF7F
:100E3000A0F3959FD1F3950F50E0551F629FF001ED
:100E4000729FBB27F00DB11D639FAA27F00DB11D46
:100E5000AA1F649F6627B00DA11D661F829F2227CF
:100E6000B00DA11D621F739FB00DA11D621F839F56
:100E7000A00D611D221F749F3327A00D611D231F2C
:100E8000849F600D211D822F762F6A2F11249F577A
:100E900050408AF0E1F088234AF0EE0FFF1FBB1F9D
:100EA000661F771F881F91505040A9F79E3F51053C
:100EB00070F060CFAACF5F3FECF3983EDCF38695ED
:100EC00077956795B795F795E7959F5FC1F7FE2BE7
:100ED000880F911D9695879597F908959F9305D052
:100EE0000F9007FCEE5F31C04BCF74DFE8F3E8945E
:100EF000EFEFBB273FE048EC5FE76B3D73078407EC
:100F0000950708F1FF279F57B25A6A4D7F40894CD9
:100F1000F04032F4BE556542704F8643FF4F08944F
:100F2000EE1F915030F0BB0F661F771F881FFF1F09
:100F3000EBCF9EE7882332F0BB0F661F771F881F19
:100F40009A95C1F79395E09511C0EF93E0FF06C025
:100F5000A2EA2AED3FE049EC5FEB8DDE22DF0F9045
:100F6000039401FC9058E8E6F0E010C09F3F49F080
:100F7000915028F4869577956795B7959F5F80384F
:100F80009F4F880F9695879597F908959F938F9314
:100F90007F936F93FF93EF939B01AC013CDFEF9145
:100FA000FF9105D02F913F914F915F9134CFDF9307
:100FB000CF931F930F93FF92EF92DF927B018C01EF
:100FC000689405C0DA2EEF0132DFFE01E894A591A6
:100FD0002591359145915591AEF3EF014CDEFE011F
:100FE0009701A801DA9479F7DF90EF90FF900F91C5
:100FF0001F91CF91DF91089597FB092E07260AD004
:1010000077FD04D049D006D000201AF47095619580
:101010007F4F0895F6F7909581959F4F0895A1E22F
:101020001A2EAA1BBB1BFD010DC0AA1FBB1FEE1F62
:10103000FF1FA217B307E407F50720F0A21BB30BAD
:10104000E40BF50B661F771F881F991F1A9469F729
:1010500060957095809590959B01AC01BD01CF0185
:10106000089597FB092E05260ED057FD04D0D7DF33
:101070000AD0001C38F450954095309521953F4F8B
:101080004F4F5F4F0895F6F7909580957095619555
:101090007F4F8F4F9F4F0895AA1BBB1B51E107C085
:1010A000AA1FBB1FA617B70710F0A61BB70B881FF8
:1010B000991F5A95A9F780959095BC01CD01089587
:1010C000EE0FFF1F0590F491E02D0994F894FFCFE7
:1010D00041726475696E6F20417564696F20000DFF
:0A10E000000700000000003F0200BE
:00000001FF
